:040000008A15002835
:0E000600F201F101F001F801F30100300800F1
:100014007B15FB1F14280130F300F201F101F001FC
:08002400FA0DF20CFF30080098
:06002C00000000000800C6
:0E003200213083120313FD00FD0B1D28080072
:100040000F3083120313FC004730FD00FD0B262800
:0A005000FC0B262800000000080049
:08005A00FA1FF2130030080048
:06006200FB15FF30080051
:10006800FB14FB1F3E28FF30F300F200F100F00004
:08007800FA0DF20CFF30080044
:1000800083160313AB1B472883128611492883125A
:10009000861583162B1B4F288312061151288312B5
:1000A00006158316AB1A5728831286105928831217
:1000B000861483162B1A5F28831206106128831278
:1000C0000614441865280616662806128616162099
:1000D00086128316AB196F2883128611712883123A
:1000E000861583162B197728831206117928831217
:1000F00006158316AB187F28831286108128831279
:10010000861483162B1887288312061089288312D9
:10011000061444188D2806168E28061286161620F8
:0E0120008612441C95282020962819200800DD
:10012E00A0017208031DAC287108F2007008F100DE
:10013E00F001A0157208031DAC287108F200F10140
:10014E00A011201672080319BA282008F302031D05
:10015E00031CBE280310F21BC228F00DF10DF20D88
:10016E00F30BB228BE280130FC000320C528023054
:0E017E00FC000A20C5280430FC002D200800DB
:10018C0083120313441083162908AB004020441437
:02019C00080059
:0E019E008312031343088A00420882000800FF
:1001AC000E3083120313FD00FD0BDA28000008004B
:1001BC0083120313FB01FA01F9018030F800F10CF2
:1001CC00F00C031CF2287408F90775080318750F56
:1001DC00FA070318FB0A0310F01FFA287408FA0731
:1001EC0075080318750FFB07FB0CFA0CF90CF80CCF
:1001FC00031CE5287B08F3007A08F2007908F1006B
:06020C007808F000080074
:1002120083120313F801F9011030FC00710DF80D7F
:10022200F90D7408F8027508031C750FF90203181A
:1002320021297408F80775080318750FF9070310C8
:0A024200F00DF10DFC0B0F29080070
:10024C00831203137408003A031D41297508003A00
:10025C00031D41297608003A031D41297708003A0D
:10026C00031D4129FF30F000FF30F1007F30F20018
:10027C00FF30F300DC298312031377080319D0290C
:10028C0073080319D329720876068039FA00F2171D
:10029C00F617A0017208F8007108FC007008FD0048
:1002AC007408FD027508031C750FFC027608031C0C
:1002BC00760FF802F801FC01FD01031C6C290310F8
:1002CC00F20CF10CF00CF80C0130A0007708F302E2
:1002DC00031C76297E302007F3070318D6297B29C7
:1002EC007E302007F307031CD9291830FA07FD0DBF
:1002FC00FC0DF80DF00DF10DF20DA00D7408F002CF
:10030C007508031C750FF1027608031C760FF202B8
:10031C00760DA004201C94297D149F297408F007E5
:10032C0075080318750FF10776080318760AF2079B
:10033C007D10FA031F307A05031D7D297B1B7D1C64
:10034C00C6290310F00DF10DF20DA00D7408F0028A
:10035C007508031C750FF1027608031C760FF20268
:10036C00760D20040139FD070318FC0A0319F80A5D
:10037C00031DC629F80CFC0CFD0CF30A0319D62935
:10038C00FA1FF8137808F2007C08F1007D08F000E1
:10039C000030DB2901303120DB2902300320DB293E
:0E03AC0004303420DB2908300A20000008004D
:1003BA0083120313FA017308031D7A147708031DC5
:1003CA00FA147A080319292A033A0319F4297A181C
:1003DA00F129F61F272A252AF21F252A272A720819
:1003EA008039FA00F21376088039F6137A0603196F
:1003FA00022A7A080319252A272A77087302031979
:10040A00092A031C1D2A212A760872020319102AB6
:10041A00031C1D2A212A750871020319172A031CB5
:10042A001D2A212A740870020319292A0318212A6D
:10043A00FA080319272A252AFA080319252A272A36
:10044A000314080003100800031403150800080029
:10045A00831203137008F8007108F000F101F20129
:10046A00F301FB01FC019630F300FA017008F10078
:0C047A007808F000F801F201972008005B
:1004860083120313FD01F801700803190034740682
:10049600FA00FA1BFD09FB01F41F532AF409F40ABA
:1004A600F01F572AF009F00A70087404FA00FA1BC4
:1004B6007B2A7408F802F00D700DF80D7408F80721
:1004C600F00D0630FC00700DF80D74087018F80277
:1004D600701CF807F00DFC0B662A701CF8077B18D9
:1004E600892AFD1F0034F009F00AF809F80A0034D9
:1004F600F41F862AF01B832A7008F800F001742A7C
:10050600F001F00A0034F009FB0A5C2AF80A7408C4
:100516007802031D742AF801F00AF01F742AFF34CA
:020526000800CB
:1005280083120313FB017308031D77080319EB2AD1
:1005380072087606FA007708F3077E30031CA82AAB
:10054800F3020318EE2AAB2AF302031CF12A7208FD
:10055800F8007108FC007008FD00F817F617031082
:10056800F201F101F0011830A0007D1CC52A7408C1
:10057800F00775080318750FF10776080318760F4A
:10058800F207F20CF10CF00CF80CFC0CFD0C03104B
:10059800A00BB92AF21BD52AF80DF00DF10DF20DBA
:1005A800F3037B1B701CE72AF81FE72AF00A0319DC
:1005B800F10A0319F20A031DE72AF20CF10CF00CF8
:1005C800F30A0319EE2AFA1FF2130030F32A013056
:1005D8000320F32A02303420F32A04300A200000D2
:0205E800080009
:1005EA00831603132908F2007208F100F20A2A0896
:1005FA00F000AA0A700884000008F000710884005C
:10060A007008800071088400000803190D2BF92A6C
:06061A002908F0000800B1
:10062000831203139F01C0309F043509F000700846
:1006300083169F051F179F1783126808F000F00D9F
:100640007010F00D7010F00D701070089F041F14E2
:10065000D6201F151F1D2E2B00002A2B1F101E0831
:10066000F100F00183161E08F0040030F1040800C8
:1006700083160313A401A501A601A701A8018312F3
:1006800068088316A000831269088316A1008312EC
:100690006A088316A20083126B088316A30023083E
:1006A000FF3A031D5D2B2208FF3A031D5D2B210835
:1006B000FF3A031D5D2B2008FF3A031D692B8312AF
:1006C0006C088316A9003130AA00F5220330F0002F
:1006D000E82D01308312EE008316A21F7E2B80309E
:1006E0002206F0007008A2008312EE0A8316A50A03
:1006F00083126C0884002D308000EC0A0030F0007A
:1007000083162306031D8E2B70082206031D8E2BD5
:1007100070082106031D8E2B2008003A031D992B1B
:1007200083126C088316A9003630AA00F522F00166
:10073000E82D2308FF3A031DA72B2208003A031DCA
:10074000A72B2108003A031DA72B2008003A031D00
:10075000B42B83126C088316A9003830AA00F52246
:1007600083126E08F000E82D0030F4000030F50030
:100770000030F6007F30F70083162008F0002108D3
:10078000F1002208F2002308F300DD2101300318F4
:100790000030F00070080319EA2B83162008F000DF
:1007A0002108F1002208F2002308F3000030F400D1
:1007B0000030F5002030F6008230F70094227008F7
:1007C0008316A0007108A1007208A2007308A3009C
:1007D000A803B42B83160030F4000030F50020305D
:1007E000F6008230F7002008F0002108F10022080E
:1007F000F2002308F300DD210130031C0030F0007B
:1008000070080319202C83162008F0002108F1003D
:100810002208F2002308F300CD30F400CC30F500BC
:100820004C30F6007B30F700942270088316A0004D
:100830007108A1007208A2007308A300A80AEA2B9D
:100840008316FF302005F800FF302105F9007F30C6
:100850002205FA0000302305FB007808F40079082F
:10086000F5007A08F6007B08F700F40DF50DF60D9B
:10087000F70D741000302005F00000302105F10064
:1008800000302205F200FF302305F3007008A000BD
:100890007108A1007208A2007308A3007408200464
:1008A000F00075082104F10076082204F2007708B0
:1008B0002304F3007008A0007108A1007208A200D0
:1008C0007308A3007F302302F00070088312EF004A
:1008D00001308316A3007008F4002008F0002108FE
:1008E000F1002208F2002308F300740803197F2C9A
:1008F000F00DF10DF20DF30D7010FF3E762C700827
:10090000A0007108A1007208A2007308A3002308C8
:10091000303EF00083126C08840070088000EC0AFE
:100920008316A50A80302806F0008030013A700254
:10093000031CA32C8030063AF00080302806700299
:10094000031CA32CAD2C83126C0884002E30800075
:10095000EC0A01308316A400A50A06308312EF00CA
:100960006F08003A0319162D8316A3012008F00022
:100970002108F1002208F2002308F300F00DF10D28
:10098000F20DF30D7010F00DF10DF20DF30D70106E
:100990002008F00721080318210FF1072208031887
:1009A000220FF20723080318230FF3077008A00093
:1009B0007108A1007208A2007308A3002008F000CB
:1009C0002108F1002208F2002308F300F00DF10DD8
:1009D000F20DF30D70107008A0007108A1007208EC
:1009E000A2007308A3002308303EF00083126C08B5
:1009F000840070088000EC0A8316A50A2408003AD7
:100A0000031D132DA8032808003A031D132D0130E0
:100A1000A70083126C0884002E308000EC0A01309D
:100A20008316A400A50A8312EF03B02C83162708AF
:100A3000013A031D1C2DA503FF3083126C078400AF
:100A400000082E3A031D272DEC038316A5038316F9
:100A50008030003AF0008030280670020318322DF2
:100A60000130A60080302806F0008030003A700285
:100A700003183C2D0230A60028088312EF008030B6
:100A8000093AF0008030831628067002031C4A2DB4
:100A9000A60A4C2D0230A60726082507F100F20110
:100AA0000318F20A80307206F00080307002031DD5
:100AB0005C2D83126D0871020318672D83126C0878
:100AC000840030308000EC0A8316A50A4C2D831672
:100AD0002808003A0319AD2D83126C088400653094
:100AE0008000EC0A803083162806F0008030003A3F
:100AF00070020318852D83126C0884002D3080004D
:100B0000EC0A83162808003CA80028088312EF008E
:100B10008030093AF00080308316280670020318EE
:100B20009E2D0A30F40083126F08F000432230300B
:100B3000F0076C08840070088000EC0A83120A3009
:100B4000F4006F08F00043227808F0003030F0071E
:100B50006C08840070088000EC0A831626082507BC
:100B6000F0007008A50083126D087002F100710892
:100B7000EF008030003AF0008030710670020318F8
:100B8000CD2D8030003AF00080306F0670020318DF
:100B9000CC2DEF03EC03C12DE42D80306F06F00067
:100BA0008030003A70020318E42D80306F06F000A8
:100BB0008030003A70020318E42DEF0A6C088400BC
:100BC00030308000EC0AD52D6C0884008001F001E3
:020BD00008001B
:100BD200831203136808F0006908F1003230F40050
:100BE2000030F500DE20FF30F4000330F50009216B
:0A0BF2000A30F0070318F10A0800AA
:100BFC00831203136808F0006908F1002D220030FD
:100C0C00F4000030F5004030F6008230F7009422FA
:100C1C000030F400C030F5007F30F6008830F7006B
:040C2C002621080075
:100C30002A2E803083120313E8003D2EC030E800D6
:100C40003D2E9430E8003D2ED430E8003D2E80301B
:100C5000E8003D2E831203136808013A0319192E88
:100C60006808023A03191E2E6808033A0319212E58
:100C70006808043A0319242E272E6903F000680837
:100C8000F0077008E80070088316AB00402044109D
:100C9000EB016B086A07840000080319582E6B08E3
:100CA0006A07840000088316A900C620EB0A492EB3
:040CB00044140800E0
:100CB4008316031386120612061086100611861177
:100CC4008312861206128611061186100610202041
:100CD4002020202086140614861616208612202032
:100CE40086161620861220208616162086122020AC
:100CF40006108616162086122020861616208612C6
:100D04008610861586161620861220208611061453
:100D140086161620861206108616162086122020A5
:100D24008616162086120614861616208612202091
:100D340006108616162086128615061586140614C5
:0C0D440086161620861220204414080099
:100D5000FF3083120313C500FF30C600FF30C70009
:100D6000FF309F01C0309F043509F00070088316E2
:0C0D70009F051F179F1783121F14080017
:100D7C0083120313EB0105306B020318CC2E6B08A6
:100D8C006A07840020308000EB0AC12E6B086A07CA
:100D9C0084008001EB036B086A07EC000A30F40056
:100DAC00F5016808F0006908F10009217808F000E5
:100DBC007908F1003030F0076C088400700880006E
:100DCC000A30F400F5016808F0006908F100092107
:100DDC007008E8007108E90000307106031DF82E58
:100DEC0000307006031DFB2EFD2EEB03D12E0800E8
:100DFC00CF208A110A128000840AC20A0319C30A7E
:080E0C00F003031DFE2E080097
:100E580021308400213083120313F0000A30C200CD
:080E68000730C300FE2608005C
:101000008A112C278A15FF30831603138500860169
:10101000831286018A11A8268A158A115A268A15F2
:1010200001308316AB008A1140208A150C308316DC
:10103000AB008A1140208A150130E8000230E90037
:101040002130EA008A1118268A151530FB004B3032
:10105000FC00BE30FD00FD0B2B28FC0B2B28FB0BEE
:101060002B28000001308316AB008A1140208A151E
:10107000E8018A1110238A1570088312C8007108CC
:10108000C9007008E8007108E9008A11E9258A158D
:101090007008E8007108E9004C30EA008A11BE26A9
:1010A0008A150130E8000430E9004C30EA008A116A
:1010B00018268A150130E8000A30E9003C30EA00C1
:1010C0008A1118268A150130E8008A1110238A1522
:1010D00070088312CA007108CB007008E80071081C
:1010E000E9008A11FE258A157008E8007108E900F8
:1010F0007208EA007308EB005A30EC000430ED008F
:101100008A1138238A15023083120313E800043051
:10111000E9005A30EA008A1118268A150230E800E0
:101120000A30E9003F30EA008A1118268A1548087B
:10113000E8004908E9008A11E9258A1500307102A2
:10114000031DA4281E307002031CA8280617A92816
:1011500006134A08E8004B08E9008A11FE258A15A3
:101160007008F4007108F5007208F6007308F700C3
:101170009A30F0009930F1001930F2008030F3001D
:101180008A11DD218A150130031C0030F00070083F
:101190000319CC288617CD2886130330FB000830AE
:1011A000FC007730FD00FD0BD328FC0BD328FB0B94
:0611B000D3283828DA28DC
:100E14006734723470343134303420343A3420340A
:100E2400703472346F346A34653474343134003459
:080E34004E3461344E340034E9
:020E3C000F3471
:040E3E003034003418
:080E420049344E3446340034FB
:060E4A00B0344334003413
:060E50002D34563400347D
:02400E007A3BFB
:00000001FF
